{"abi":[{"type":"constructor","inputs":[],"stateMutability":"nonpayable"},{"type":"function","name":"UPGRADE_INTERFACE_VERSION","inputs":[],"outputs":[{"name":"","type":"string","internalType":"string"}],"stateMutability":"view"},{"type":"function","name":"addKmsAggregatedMr","inputs":[{"name":"mrAggregated","type":"bytes32","internalType":"bytes32"}],"outputs":[],"stateMutability":"nonpayable"},{"type":"function","name":"addKmsDevice","inputs":[{"name":"deviceId","type":"bytes32","internalType":"bytes32"}],"outputs":[],"stateMutability":"nonpayable"},{"type":"function","name":"addOsImageHash","inputs":[{"name":"osImageHash","type":"bytes32","internalType":"bytes32"}],"outputs":[],"stateMutability":"nonpayable"},{"type":"function","name":"allowedOsImages","inputs":[{"name":"","type":"bytes32","internalType":"bytes32"}],"outputs":[{"name":"","type":"bool","internalType":"bool"}],"stateMutability":"view"},{"type":"function","name":"appImplementation","inputs":[],"outputs":[{"name":"","type":"address","internalType":"address"}],"stateMutability":"view"},{"type":"function","name":"deployAndRegisterApp","inputs":[{"name":"initialOwner","type":"address","internalType":"address"},{"name":"disableUpgrades","type":"bool","internalType":"bool"},{"name":"allowAnyDevice","type":"bool","internalType":"bool"},{"name":"initialDeviceId","type":"bytes32","internalType":"bytes32"},{"name":"initialComposeHash","type":"bytes32","internalType":"bytes32"}],"outputs":[{"name":"appId","type":"address","internalType":"address"}],"stateMutability":"nonpayable"},{"type":"function","name":"gatewayAppId","inputs":[],"outputs":[{"name":"","type":"string","internalType":"string"}],"stateMutability":"view"},{"type":"function","name":"initialize","inputs":[{"name":"initialOwner","type":"address","internalType":"address"},{"name":"_appImplementation","type":"address","internalType":"address"}],"outputs":[],"stateMutability":"nonpayable"},{"type":"function","name":"isAppAllowed","inputs":[{"name":"bootInfo","type":"tuple","internalType":"struct IAppAuth.AppBootInfo","components":[{"name":"appId","type":"address","internalType":"address"},{"name":"composeHash","type":"bytes32","internalType":"bytes32"},{"name":"instanceId","type":"address","internalType":"address"},{"name":"deviceId","type":"bytes32","internalType":"bytes32"},{"name":"mrAggregated","type":"bytes32","internalType":"bytes32"},{"name":"mrSystem","type":"bytes32","internalType":"bytes32"},{"name":"osImageHash","type":"bytes32","internalType":"bytes32"},{"name":"tcbStatus","type":"string","internalType":"string"},{"name":"advisoryIds","type":"string[]","internalType":"string[]"}]}],"outputs":[{"name":"isAllowed","type":"bool","internalType":"bool"},{"name":"reason","type":"string","internalType":"string"}],"stateMutability":"view"},{"type":"function","name":"isKmsAllowed","inputs":[{"name":"bootInfo","type":"tuple","internalType":"struct IAppAuth.AppBootInfo","components":[{"name":"appId","type":"address","internalType":"address"},{"name":"composeHash","type":"bytes32","internalType":"bytes32"},{"name":"instanceId","type":"address","internalType":"address"},{"name":"deviceId","type":"bytes32","internalType":"bytes32"},{"name":"mrAggregated","type":"bytes32","internalType":"bytes32"},{"name":"mrSystem","type":"bytes32","internalType":"bytes32"},{"name":"osImageHash","type":"bytes32","internalType":"bytes32"},{"name":"tcbStatus","type":"string","internalType":"string"},{"name":"advisoryIds","type":"string[]","internalType":"string[]"}]}],"outputs":[{"name":"isAllowed","type":"bool","internalType":"bool"},{"name":"reason","type":"string","internalType":"string"}],"stateMutability":"view"},{"type":"function","name":"kmsAllowedAggregatedMrs","inputs":[{"name":"","type":"bytes32","internalType":"bytes32"}],"outputs":[{"name":"","type":"bool","internalType":"bool"}],"stateMutability":"view"},{"type":"function","name":"kmsAllowedDeviceIds","inputs":[{"name":"","type":"bytes32","internalType":"bytes32"}],"outputs":[{"name":"","type":"bool","internalType":"bool"}],"stateMutability":"view"},{"type":"function","name":"kmsInfo","inputs":[],"outputs":[{"name":"k256Pubkey","type":"bytes","internalType":"bytes"},{"name":"caPubkey","type":"bytes","internalType":"bytes"},{"name":"quote","type":"bytes","internalType":"bytes"},{"name":"eventlog","type":"bytes","internalType":"bytes"}],"stateMutability":"view"},{"type":"function","name":"owner","inputs":[],"outputs":[{"name":"","type":"address","internalType":"address"}],"stateMutability":"view"},{"type":"function","name":"proxiableUUID","inputs":[],"outputs":[{"name":"","type":"bytes32","internalType":"bytes32"}],"stateMutability":"view"},{"type":"function","name":"registerApp","inputs":[{"name":"appId","type":"address","internalType":"address"}],"outputs":[],"stateMutability":"nonpayable"},{"type":"function","name":"registeredApps","inputs":[{"name":"","type":"address","internalType":"address"}],"outputs":[{"name":"","type":"bool","internalType":"bool"}],"stateMutability":"view"},{"type":"function","name":"removeKmsAggregatedMr","inputs":[{"name":"mrAggregated","type":"bytes32","internalType":"bytes32"}],"outputs":[],"stateMutability":"nonpayable"},{"type":"function","name":"removeKmsDevice","inputs":[{"name":"deviceId","type":"bytes32","internalType":"bytes32"}],"outputs":[],"stateMutability":"nonpayable"},{"type":"function","name":"removeOsImageHash","inputs":[{"name":"osImageHash","type":"bytes32","internalType":"bytes32"}],"outputs":[],"stateMutability":"nonpayable"},{"type":"function","name":"renounceOwnership","inputs":[],"outputs":[],"stateMutability":"nonpayable"},{"type":"function","name":"setAppImplementation","inputs":[{"name":"_implementation","type":"address","internalType":"address"}],"outputs":[],"stateMutability":"nonpayable"},{"type":"function","name":"setGatewayAppId","inputs":[{"name":"appId","type":"string","internalType":"string"}],"outputs":[],"stateMutability":"nonpayable"},{"type":"function","name":"setKmsEventlog","inputs":[{"name":"eventlog","type":"bytes","internalType":"bytes"}],"outputs":[],"stateMutability":"nonpayable"},{"type":"function","name":"setKmsInfo","inputs":[{"name":"info","type":"tuple","internalType":"struct DstackKms.KmsInfo","components":[{"name":"k256Pubkey","type":"bytes","internalType":"bytes"},{"name":"caPubkey","type":"bytes","internalType":"bytes"},{"name":"quote","type":"bytes","internalType":"bytes"},{"name":"eventlog","type":"bytes","internalType":"bytes"}]}],"outputs":[],"stateMutability":"nonpayable"},{"type":"function","name":"setKmsQuote","inputs":[{"name":"quote","type":"bytes","internalType":"bytes"}],"outputs":[],"stateMutability":"nonpayable"},{"type":"function","name":"supportsInterface","inputs":[{"name":"interfaceId","type":"bytes4","internalType":"bytes4"}],"outputs":[{"name":"","type":"bool","internalType":"bool"}],"stateMutability":"view"},{"type":"function","name":"transferOwnership","inputs":[{"name":"newOwner","type":"address","internalType":"address"}],"outputs":[],"stateMutability":"nonpayable"},{"type":"function","name":"upgradeToAndCall","inputs":[{"name":"newImplementation","type":"address","internalType":"address"},{"name":"data","type":"bytes","internalType":"bytes"}],"outputs":[],"stateMutability":"payable"},{"type":"event","name":"AppDeployedViaFactory","inputs":[{"name":"appId","type":"address","indexed":true,"internalType":"address"},{"name":"deployer","type":"address","indexed":true,"internalType":"address"}],"anonymous":false},{"type":"event","name":"AppImplementationSet","inputs":[{"name":"implementation","type":"address","indexed":false,"internalType":"address"}],"anonymous":false},{"type":"event","name":"AppRegistered","inputs":[{"name":"appId","type":"address","indexed":false,"internalType":"address"}],"anonymous":false},{"type":"event","name":"GatewayAppIdSet","inputs":[{"name":"gatewayAppId","type":"string","indexed":false,"internalType":"string"}],"anonymous":false},{"type":"event","name":"Initialized","inputs":[{"name":"version","type":"uint64","indexed":false,"internalType":"uint64"}],"anonymous":false},{"type":"event","name":"KmsAggregatedMrAdded","inputs":[{"name":"mrAggregated","type":"bytes32","indexed":false,"internalType":"bytes32"}],"anonymous":false},{"type":"event","name":"KmsAggregatedMrRemoved","inputs":[{"name":"mrAggregated","type":"bytes32","indexed":false,"internalType":"bytes32"}],"anonymous":false},{"type":"event","name":"KmsDeviceAdded","inputs":[{"name":"deviceId","type":"bytes32","indexed":false,"internalType":"bytes32"}],"anonymous":false},{"type":"event","name":"KmsDeviceRemoved","inputs":[{"name":"deviceId","type":"bytes32","indexed":false,"internalType":"bytes32"}],"anonymous":false},{"type":"event","name":"KmsInfoSet","inputs":[{"name":"k256Pubkey","type":"bytes","indexed":false,"internalType":"bytes"}],"anonymous":false},{"type":"event","name":"OsImageHashAdded","inputs":[{"name":"osImageHash","type":"bytes32","indexed":false,"internalType":"bytes32"}],"anonymous":false},{"type":"event","name":"OsImageHashRemoved","inputs":[{"name":"osImageHash","type":"bytes32","indexed":false,"internalType":"bytes32"}],"anonymous":false},{"type":"event","name":"OwnershipTransferred","inputs":[{"name":"previousOwner","type":"address","indexed":true,"internalType":"address"},{"name":"newOwner","type":"address","indexed":true,"internalType":"address"}],"anonymous":false},{"type":"event","name":"Upgraded","inputs":[{"name":"implementation","type":"address","indexed":true,"internalType":"address"}],"anonymous":false},{"type":"error","name":"AddressEmptyCode","inputs":[{"name":"target","type":"address","internalType":"address"}]},{"type":"error","name":"ERC1967InvalidImplementation","inputs":[{"name":"implementation","type":"address","internalType":"address"}]},{"type":"error","name":"ERC1967NonPayable","inputs":[]},{"type":"error","name":"FailedCall","inputs":[]},{"type":"error","name":"InvalidInitialization","inputs":[]},{"type":"error","name":"NotInitializing","inputs":[]},{"type":"error","name":"OwnableInvalidOwner","inputs":[{"name":"owner","type":"address","internalType":"address"}]},{"type":"error","name":"OwnableUnauthorizedAccount","inputs":[{"name":"account","type":"address","internalType":"address"}]},{"type":"error","name":"UUPSUnauthorizedCallContext","inputs":[]},{"type":"error","name":"UUPSUnsupportedProxiableUUID","inputs":[{"name":"slot","type":"bytes32","internalType":"bytes32"}]}],"bytecode":{"object":"0x60a060405230608052348015610013575f80fd5b5061001c610021565b6100d3565b7ff0c57e16840df040f15088dc2f81fe391c3923bec73e23a9662efc9c229c6a00805468010000000000000000900460ff16156100715760405163f92ee8a960e01b815260040160405180910390fd5b80546001600160401b03908116146100d05780546001600160401b0319166001600160401b0390811782556040519081527fc7f505b2f371ae2175ee4913f4499e1f2633a7b5936321eed1cdaeb6115181d29060200160405180910390a15b50565b608051612838620000fa5f395f81816115d1015281816115fb015261174e01526128385ff3fe608060405260043610620001eb575f3560e01c806352d1902d116200010657806395f51931116200009e578063ad3cb1cc116200006a578063ad3cb1cc1462000607578063e067ec9d1462000639578063f2fde38b146200065d578063f6fe4f401462000681575f80fd5b806395f5193114620005595780639a4e1d18146200057f5780639e6f311414620005b1578063a6c4cce914620005d5575f80fd5b80637d02535211620000de5780637d02535214620004af5780638618169d14620004d35780638da5cb5b14620004f75780639425bac61462000535575f80fd5b806352d1902d146200044e578063715018a61462000474578063736ede7a146200048b575f80fd5b806325a992da11620001865780633e32d34611620001525780633e32d34614620003cb578063485cc95514620003ef5780634d5922a114620004135780634f1ef2861462000437575f80fd5b806325a992da14620003255780632adee48d146200035f5780633971db2714620003835780633ceaaa1114620003a7575f80fd5b806313eb977011620001c657806313eb9770146200027757806317a1d80f14620002a957806318c1ecb214620002cd5780631e07919814620002f1575f80fd5b806301ffc9a714620001ef57806306a3ae96146200022857806309177063146200024e575b5f80fd5b348015620001fb575f80fd5b50620002136200020d36600462001a41565b620006b3565b60405190151581526020015b60405180910390f35b34801562000234575f80fd5b506200024c6200024636600462001a6a565b620006ea565b005b3480156200025a575f80fd5b50620002656200074a565b6040516200021f949392919062001ad3565b34801562000283575f80fd5b50620002136200029536600462001a6a565b60076020525f908152604090205460ff1681565b348015620002b5575f80fd5b506200024c620002c736600462001b4e565b6200099d565b348015620002d9575f80fd5b506200024c620002eb36600462001c66565b62000a3e565b348015620002fd575f80fd5b50620003156200030f36600462001ca3565b62000a5a565b6040516200021f92919062001cdd565b34801562000331575f80fd5b5060095462000346906001600160a01b031681565b6040516001600160a01b0390911681526020016200021f565b3480156200036b575f80fd5b506200024c6200037d36600462001a6a565b62000be5565b3480156200038f575f80fd5b506200024c620003a136600462001cf9565b62000c37565b348015620003b3575f80fd5b506200024c620003c536600462001b4e565b62000c81565b348015620003d7575f80fd5b506200024c620003e936600462001a6a565b62000d32565b348015620003fb575f80fd5b506200024c6200040d36600462001d42565b62000d87565b3480156200041f575f80fd5b506200024c6200043136600462001a6a565b62000eff565b6200024c6200044836600462001d78565b62000f54565b3480156200045a575f80fd5b506200046562000f75565b6040519081526020016200021f565b34801562000480575f80fd5b506200024c62000f93565b34801562000497575f80fd5b506200024c620004a936600462001c66565b62000faa565b348015620004bb575f80fd5b506200024c620004cd36600462001dc8565b62000fc2565b348015620004df575f80fd5b5062000346620004f136600462001eb7565b6200105b565b34801562000503575f80fd5b507f9016d09d72d40fdae2fd8ceac6b6234c7706214fd39c1cd1e609a0528c199300546001600160a01b031662000346565b34801562000541575f80fd5b506200024c6200055336600462001a6a565b620011ef565b34801562000565575f80fd5b506200057062001241565b6040516200021f919062001f13565b3480156200058b575f80fd5b50620002136200059d36600462001a6a565b60086020525f908152604090205460ff1681565b348015620005bd575f80fd5b506200024c620005cf36600462001a6a565b620012d5565b348015620005e1575f80fd5b5062000213620005f336600462001b4e565b60056020525f908152604090205460ff1681565b34801562000613575f80fd5b5062000570604051806040016040528060058152602001640352e302e360dc1b81525081565b34801562000645575f80fd5b50620003156200065736600462001ca3565b62001327565b34801562000669575f80fd5b506200024c6200067b36600462001b4e565b620014dd565b3480156200068d575f80fd5b50620002136200069f36600462001a6a565b60066020525f908152604090205460ff1681565b5f6303c0f23360e31b6001600160e01b031983161480620006e457506301ffc9a760e01b6001600160e01b03198316145b92915050565b620006f462001520565b5f8181526008602052604090819020805460ff19166001179055517f4911843506849c85a5ca6e6e2c01eed2d3ab86baba619517a2aad9d5ab2aeff2906200073f9083815260200190565b60405180910390a150565b5f805481906200075a9062001f27565b80601f0160208091040260200160405190810160405280929190818152602001828054620007889062001f27565b8015620007d75780601f10620007ad57610100808354040283529160200191620007d7565b820191905f5260205f20905b815481529060010190602001808311620007b957829003601f168201915b505050505090806001018054620007ee9062001f27565b80601f01602080910402602001604051908101604052809291908181526020018280546200081c9062001f27565b80156200086b5780601f1062000841576101008083540402835291602001916200086b565b820191905f5260205f20905b8154815290600101906020018083116200084d57829003601f168201915b505050505090806002018054620008829062001f27565b80601f0160208091040260200160405190810160405280929190818152602001828054620008b09062001f27565b8015620008ff5780601f10620008d557610100808354040283529160200191620008ff565b820191905f5260205f20905b815481529060010190602001808311620008e157829003601f168201915b505050505090806003018054620009169062001f27565b80601f0160208091040260200160405190810160405280929190818152602001828054620009449062001f27565b8015620009935780601f10620009695761010080835404028352916020019162000993565b820191905f5260205f20905b8154815290600101906020018083116200097557829003601f168201915b5050505050905084565b6001600160a01b038116620009ea5760405162461bcd60e51b815260206004820152600e60248201526d125b9d985b1a5908185c1c08125160921b60448201526064015b60405180910390fd5b6001600160a01b0381165f81815260056020908152604091829020805460ff1916600117905590519182527f0d540ad8f39e07d19909687352b9fa017405d93c91a6760981fbae9cf28bfef791016200073f565b62000a4862001520565b600262000a56828262001fb0565b5050565b5f606060058262000a6f602086018662001b4e565b6001600160a01b0316815260208101919091526040015f205460ff1662000ac2575050604080518082019091526012815271105c1c081b9bdd081c9959da5cdd195c995960721b60208201525f92909150565b60c08301355f9081526008602052604090205460ff1662000b1457505060408051808201909152601781527613d4c81a5b5859d9481a5cc81b9bdd08185b1b1bddd959604a1b60208201525f92909150565b62000b3362000b27602085018562001b4e565b3b63ffffffff16151590565b62000b5c575f604051806060016040528060238152602001620027e06023913991509150915091565b62000b6b602084018462001b4e565b6001600160a01b0316631e079198846040518263ffffffff1660e01b815260040162000b9891906200219b565b5f60405180830381865afa15801562000bb3573d5f803e3d5ffd5b505050506040513d5f823e601f3d908101601f1916820160405262000bdc919081019062002267565b91509150915091565b62000bef62001520565b5f8181526006602052604090819020805460ff19169055517f54cd662e41eec7ddf0f32f034b2533e481b471dd3ea978222d609ec8fffb1bb0906200073f9083815260200190565b62000c4162001520565b600462000c4f828262001fb0565b507f5b2b64f770ea5266055ebd3ebf205ef06cbfa738e62684edf0e28356e34acf06816040516200073f919062001f13565b62000c8b62001520565b6001600160a01b03811662000ce35760405162461bcd60e51b815260206004820152601e60248201527f496e76616c696420696d706c656d656e746174696f6e206164647265737300006044820152606401620009e1565b600980546001600160a01b0319166001600160a01b0383169081179091556040519081527f08bb433f12b5fd81d2d5e0deeb3b4d28371781ddbd80e9d053e7468d2b1aa82d906020016200073f565b62000d3c62001520565b5f8181526006602052604090819020805460ff19166001179055517f68615a0b92795750b3d180ff73429e1291d225e449eee954a567b91104fd9837906200073f9083815260200190565b5f62000d926200157e565b805490915060ff600160401b82041615906001600160401b03165f8115801562000db95750825b90505f826001600160401b0316600114801562000dd55750303b155b90508115801562000de4575080155b1562000e035760405163f92ee8a960e01b815260040160405180910390fd5b845467ffffffffffffffff19166001178555831562000e2e57845460ff60401b1916600160401b1785555b62000e3987620015a7565b62000e43620015bc565b62000e4d620015bc565b6001600160a01b0386161562000eaf57600980546001600160a01b0319166001600160a01b0388169081179091556040519081527f08bb433f12b5fd81d2d5e0deeb3b4d28371781ddbd80e9d053e7468d2b1aa82d9060200160405180910390a15b831562000ef657845460ff60401b19168555604051600181527fc7f505b2f371ae2175ee4913f4499e1f2633a7b5936321eed1cdaeb6115181d29060200160405180910390a15b50505050505050565b62000f0962001520565b5f8181526007602052604090819020805460ff19166001179055517ff2b290637b1193e12eb38ab32b986303639b1687cc2cd1e25f993e6eae2f4041906200073f9083815260200190565b62000f5e620015c6565b62000f69826200166e565b62000a56828262001678565b5f62000f8062001743565b505f80516020620027c083398151915290565b62000f9d62001520565b62000fa85f6200178d565b565b62000fb462001520565b600362000a56828262001fb0565b62000fcc62001520565b805181905f90819062000fe0908262001fb0565b506020820151600182019062000ff7908262001fb0565b50604082015160028201906200100e908262001fb0565b506060820151600382019062001025908262001fb0565b505081516040517f77cdad119a452bbd96c45635758fc4af8a6bde3deaccf3fada634ddf9a16270692506200073f919062001f13565b6009545f906001600160a01b0316620010b75760405162461bcd60e51b815260206004820181905260248201527f44737461636b41707020696d706c656d656e746174696f6e206e6f74207365746044820152606401620009e1565b6001600160a01b038616620011075760405162461bcd60e51b8152602060048201526015602482015274496e76616c6964206f776e6572206164647265737360581b6044820152606401620009e1565b604080516001600160a01b038881166024830152871515604483015286151560648301526084820186905260a48083018690528351808403909101815260c490920183526020820180516001600160e01b0316630c3a8ae560e11b17905260095492519192169082906200117b9062001a33565b62001188929190620022f9565b604051809103905ff080158015620011a2573d5f803e3d5ffd5b509150620011b0826200099d565b60405133906001600160a01b038416907ffd86d7f6962eba3b7a3bf9129c06c0b2f885e1c61ef2c9f0dbb856be0deefdee905f90a35095945050505050565b620011f962001520565b5f8181526008602052604090819020805460ff19169055517f99b3cee95daf3138d0c982299cd0264f5b7a61aa629b42b92f3ec8966aa7f6fe906200073f9083815260200190565b60048054620012509062001f27565b80601f01602080910402602001604051908101604052809291908181526020018280546200127e9062001f27565b8015620012cd5780601f10620012a357610100808354040283529160200191620012cd565b820191905f5260205f20905b815481529060010190602001808311620012af57829003601f168201915b505050505081565b620012df62001520565b5f8181526007602052604090819020805460ff19169055517f1a9888a45e3df8b7e6bb3090747d598d2a0d78e61388161a90799f54df8f4434906200073f9083815260200190565b5f60606040516020016200134990675570546f4461746560c01b815260080190565b60408051601f1981840301815291905280516020909101206200137060e08501856200231e565b6040516020016200138392919062002363565b6040516020818303038152906040528051906020012014620013dc57505060408051808201909152601c81527f54434220737461747573206973206e6f7420757020746f20646174650000000060208201525f92909150565b60c08301355f9081526008602052604090205460ff166200142e57505060408051808201909152601781527613d4c81a5b5859d9481a5cc81b9bdd08185b1b1bddd959604a1b60208201525f92909150565b60808301355f9081526006602052604090205460ff166200148657505060408051808201909152601981527f41676772656761746564204d52206e6f7420616c6c6f7765640000000000000060208201525f92909150565b60608301355f9081526007602052604090205460ff16620014c5575f604051806060016040528060298152602001620027976029913991509150915091565b505060408051602081019091525f8152600192909150565b620014e762001520565b6001600160a01b0381166200151257604051631e4fbdf760e01b81525f6004820152602401620009e1565b6200151d816200178d565b50565b33620015537f9016d09d72d40fdae2fd8ceac6b6234c7706214fd39c1cd1e609a0528c199300546001600160a01b031690565b6001600160a01b03161462000fa85760405163118cdaa760e01b8152336004820152602401620009e1565b5f807ff0c57e16840df040f15088dc2f81fe391c3923bec73e23a9662efc9c229c6a00620006e4565b620015b1620017fd565b6200151d8162001825565b62000fa8620017fd565b306001600160a01b037f00000000000000000000000000000000000000000000000000000000000000001614806200164f57507f00000000000000000000000000000000000000000000000000000000000000006001600160a01b0316620016435f80516020620027c0833981519152546001600160a01b031690565b6001600160a01b031614155b1562000fa85760405163703e46dd60e11b815260040160405180910390fd5b6200151d62001520565b816001600160a01b03166352d1902d6040518163ffffffff1660e01b8152600401602060405180830381865afa925050508015620016d5575060408051601f3d908101601f19168201909252620016d29181019062002372565b60015b620016ff57604051634c9c8ce360e01b81526001600160a01b0383166004820152602401620009e1565b5f80516020620027c083398151915281146200173257604051632a87526960e21b815260048101829052602401620009e1565b6200173e83836200182f565b505050565b306001600160a01b037f0000000000000000000000000000000000000000000000000000000000000000161462000fa85760405163703e46dd60e11b815260040160405180910390fd5b7f9016d09d72d40fdae2fd8ceac6b6234c7706214fd39c1cd1e609a0528c19930080546001600160a01b031981166001600160a01b03848116918217845560405192169182907f8be0079c531659141344cd1fd0a4f28419497f9722a3daafe3b4186f6b6457e0905f90a3505050565b620018076200188b565b62000fa857604051631afcd79f60e31b815260040160405180910390fd5b620014e7620017fd565b6200183a82620018a6565b6040516001600160a01b038316907fbc7cd75a20ee27fd9adebab32041f755214dbc6bffa90cc0225b39da2e5c2d3b905f90a280511562001881576200173e82826200190c565b62000a5662001984565b5f620018966200157e565b54600160401b900460ff16919050565b806001600160a01b03163b5f03620018dd57604051634c9c8ce360e01b81526001600160a01b0382166004820152602401620009e1565b5f80516020620027c083398151915280546001600160a01b0319166001600160a01b0392909216919091179055565b60605f80846001600160a01b0316846040516200192a91906200238a565b5f60405180830381855af49150503d805f811462001964576040519150601f19603f3d011682016040523d82523d5f602084013e62001969565b606091505b50915091506200197b858383620019a4565b95945050505050565b341562000fa85760405163b398979f60e01b815260040160405180910390fd5b606082620019bd57620019b78262001a0a565b62001a03565b8151158015620019d557506001600160a01b0384163b155b1562001a0057604051639996b31560e01b81526001600160a01b0385166004820152602401620009e1565b50805b9392505050565b80511562001a1a57805160208201fd5b60405163d6bda27560e01b815260040160405180910390fd5b6103ef80620023a883390190565b5f6020828403121562001a52575f80fd5b81356001600160e01b03198116811462001a03575f80fd5b5f6020828403121562001a7b575f80fd5b5035919050565b5f5b8381101562001a9e57818101518382015260200162001a84565b50505f910152565b5f815180845262001abf81602086016020860162001a82565b601f01601f19169290920160200192915050565b608081525f62001ae7608083018762001aa6565b828103602084015262001afb818762001aa6565b9050828103604084015262001b11818662001aa6565b9050828103606084015262001b27818562001aa6565b979650505050505050565b80356001600160a01b038116811462001b49575f80fd5b919050565b5f6020828403121562001b5f575f80fd5b62001a038262001b32565b634e487b7160e01b5f52604160045260245ffd5b604051608081016001600160401b038111828210171562001ba35762001ba362001b6a565b60405290565b604051601f8201601f191681016001600160401b038111828210171562001bd45762001bd462001b6a565b604052919050565b5f6001600160401b0382111562001bf75762001bf762001b6a565b50601f01601f191660200190565b5f62001c1b62001c158462001bdc565b62001ba9565b905082815283838301111562001c2f575f80fd5b828260208301375f602084830101529392505050565b5f82601f83011262001c55575f80fd5b62001a038383356020850162001c05565b5f6020828403121562001c77575f80fd5b81356001600160401b0381111562001c8d575f80fd5b62001c9b8482850162001c45565b949350505050565b5f6020828403121562001cb4575f80fd5b81356001600160401b0381111562001cca575f80fd5b8201610120818503121562001a03575f80fd5b8215158152604060208201525f62001c9b604083018462001aa6565b5f6020828403121562001d0a575f80fd5b81356001600160401b0381111562001d20575f80fd5b8201601f8101841362001d31575f80fd5b62001c9b8482356020840162001c05565b5f806040838503121562001d54575f80fd5b62001d5f8362001b32565b915062001d6f6020840162001b32565b90509250929050565b5f806040838503121562001d8a575f80fd5b62001d958362001b32565b915060208301356001600160401b0381111562001db0575f80fd5b62001dbe8582860162001c45565b9150509250929050565b5f6020828403121562001dd9575f80fd5b81356001600160401b038082111562001df0575f80fd5b908301906080828603121562001e04575f80fd5b62001e0e62001b7e565b82358281111562001e1d575f80fd5b62001e2b8782860162001c45565b82525060208301358281111562001e40575f80fd5b62001e4e8782860162001c45565b60208301525060408301358281111562001e66575f80fd5b62001e748782860162001c45565b60408301525060608301358281111562001e8c575f80fd5b62001e9a8782860162001c45565b60608301525095945050505050565b80151581146200151d575f80fd5b5f805f805f60a0868803121562001ecc575f80fd5b62001ed78662001b32565b9450602086013562001ee98162001ea9565b9350604086013562001efb8162001ea9565b94979396509394606081013594506080013592915050565b602081525f62001a03602083018462001aa6565b600181811c9082168062001f3c57607f821691505b60208210810362001f5b57634e487b7160e01b5f52602260045260245ffd5b50919050565b601f8211156200173e57805f5260205f20601f840160051c8101602085101562001f885750805b601f840160051c820191505b8181101562001fa9575f815560010162001f94565b5050505050565b81516001600160401b0381111562001fcc5762001fcc62001b6a565b62001fe48162001fdd845462001f27565b8462001f61565b602080601f8311600181146200201a575f8415620020025750858301515b5f19600386901b1c1916600185901b17855562002074565b5f85815260208120601f198616915b828110156200204a5788860151825594840194600190910190840162002029565b50858210156200206857878501515f19600388901b60f8161c191681555b505060018460011b0185555b505050505050565b5f808335601e1984360301811262002092575f80fd5b83016020810192503590506001600160401b03811115620020b1575f80fd5b803603821315620020c0575f80fd5b9250929050565b81835281816020850137505f828201602090810191909152601f909101601f19169091010190565b5f808335601e1984360301811262002105575f80fd5b83016020810192503590506001600160401b0381111562002124575f80fd5b8060051b3603821315620020c0575f80fd5b5f838385526020808601955060208560051b830101845f5b878110156200218e57848303601f190189526200216c82886200207c565b62002179858284620020c7565b9a86019a94505050908301906001016200214e565b5090979650505050505050565b60208152620021bf60208201620021b28462001b32565b6001600160a01b03169052565b602082013560408201525f620021d86040840162001b32565b6001600160a01b03811660608401525060608301356080830152608083013560a083015260a083013560c083015260c083013560e08301526200221f60e08401846200207c565b61012061010081818701526200223b61014087018486620020c7565b93506200224b81880188620020ef565b878603601f1901848901529350905062001b2784848362002136565b5f806040838503121562002279575f80fd5b8251620022868162001ea9565b60208401519092506001600160401b03811115620022a2575f80fd5b8301601f81018513620022b3575f80fd5b8051620022c462001c158262001bdc565b818152866020838501011115620022d9575f80fd5b620022ec82602083016020860162001a82565b8093505050509250929050565b6001600160a01b03831681526040602082018190525f9062001c9b9083018462001aa6565b5f808335601e1984360301811262002334575f80fd5b8301803591506001600160401b038211156200234e575f80fd5b602001915036819003821315620020c0575f80fd5b818382375f9101908152919050565b5f6020828403121562002383575f80fd5b5051919050565b5f82516200239d81846020870162001a82565b919091019291505056fe60806040526040516103ef3803806103ef8339810160408190526100229161025d565b61002c8282610033565b5050610340565b61003c82610091565b6040516001600160a01b038316907fbc7cd75a20ee27fd9adebab32041f755214dbc6bffa90cc0225b39da2e5c2d3b905f90a280511561008557610080828261010c565b505050565b61008d61017f565b5050565b806001600160a01b03163b5f036100cb57604051634c9c8ce360e01b81526001600160a01b03821660048201526024015b60405180910390fd5b7f360894a13ba1a3210667c828492db98dca3e2076cc3735a920a3ca505d382bbc80546001600160a01b0319166001600160a01b0392909216919091179055565b60605f80846001600160a01b0316846040516101289190610325565b5f60405180830381855af49150503d805f8114610160576040519150601f19603f3d011682016040523d82523d5f602084013e610165565b606091505b5090925090506101768583836101a0565b95945050505050565b341561019e5760405163b398979f60e01b815260040160405180910390fd5b565b6060826101b5576101b0826101ff565b6101f8565b81511580156101cc57506001600160a01b0384163b155b156101f557604051639996b31560e01b81526001600160a01b03851660048201526024016100c2565b50805b9392505050565b80511561020e57805160208201fd5b60405163d6bda27560e01b815260040160405180910390fd5b634e487b7160e01b5f52604160045260245ffd5b5f5b8381101561025557818101518382015260200161023d565b50505f910152565b5f806040838503121561026e575f80fd5b82516001600160a01b0381168114610284575f80fd5b60208401519092506001600160401b03808211156102a0575f80fd5b818501915085601f8301126102b3575f80fd5b8151818111156102c5576102c5610227565b604051601f8201601f19908116603f011681019083821181831017156102ed576102ed610227565b81604052828152886020848701011115610305575f80fd5b61031683602083016020880161023b565b80955050505050509250929050565b5f825161033681846020870161023b565b9190910192915050565b60a38061034c5f395ff3fe6080604052600a600c565b005b60186014601a565b6050565b565b5f604b7f360894a13ba1a3210667c828492db98dca3e2076cc3735a920a3ca505d382bbc546001600160a01b031690565b905090565b365f80375f80365f845af43d5f803e8080156069573d5ff35b3d5ffdfea2646970667358221220e2b27dea07346135c3cec1f81c7546ef759ccf749bf108316a6bb30bf065976364736f6c634300081600334b4d53206973206e6f7420616c6c6f77656420746f20626f6f74206f6e207468697320646576696365360894a13ba1a3210667c828492db98dca3e2076cc3735a920a3ca505d382bbc417070206e6f74206465706c6f796564206f7220696e76616c69642061646472657373a26469706673582212202738c71f50937a9f312dfc14197e61f00a03f09e4862685ef84a483c89c30d0b64736f6c63430008160033","linkReferences":{}},"methodIdentifiers":{"UPGRADE_INTERFACE_VERSION()":"ad3cb1cc","addKmsAggregatedMr(bytes32)":"3e32d346","addKmsDevice(bytes32)":"4d5922a1","addOsImageHash(bytes32)":"06a3ae96","allowedOsImages(bytes32)":"9a4e1d18","appImplementation()":"25a992da","deployAndRegisterApp(address,bool,bool,bytes32,bytes32)":"8618169d","gatewayAppId()":"95f51931","initialize(address,address)":"485cc955","isAppAllowed((address,bytes32,address,bytes32,bytes32,bytes32,bytes32,string,string[]))":"1e079198","isKmsAllowed((address,bytes32,address,bytes32,bytes32,bytes32,bytes32,string,string[]))":"e067ec9d","kmsAllowedAggregatedMrs(bytes32)":"f6fe4f40","kmsAllowedDeviceIds(bytes32)":"13eb9770","kmsInfo()":"09177063","owner()":"8da5cb5b","proxiableUUID()":"52d1902d","registerApp(address)":"17a1d80f","registeredApps(address)":"a6c4cce9","removeKmsAggregatedMr(bytes32)":"2adee48d","removeKmsDevice(bytes32)":"9e6f3114","removeOsImageHash(bytes32)":"9425bac6","renounceOwnership()":"715018a6","setAppImplementation(address)":"3ceaaa11","setGatewayAppId(string)":"3971db27","setKmsEventlog(bytes)":"736ede7a","setKmsInfo((bytes,bytes,bytes,bytes))":"7d025352","setKmsQuote(bytes)":"18c1ecb2","supportsInterface(bytes4)":"01ffc9a7","transferOwnership(address)":"f2fde38b","upgradeToAndCall(address,bytes)":"4f1ef286"},"storageLayout":{"storage":[{"astId":342,"contract":"contracts/DstackKms.sol:DstackKms","label":"kmsInfo","offset":0,"slot":"0","type":"t_struct(KmsInfo)339_storage"},{"astId":345,"contract":"contracts/DstackKms.sol:DstackKms","label":"gatewayAppId","offset":0,"slot":"4","type":"t_string_storage"},{"astId":349,"contract":"contracts/DstackKms.sol:DstackKms","label":"registeredApps","offset":0,"slot":"5","type":"t_mapping(t_address,t_bool)"},{"astId":353,"contract":"contracts/DstackKms.sol:DstackKms","label":"kmsAllowedAggregatedMrs","offset":0,"slot":"6","type":"t_mapping(t_bytes32,t_bool)"},{"astId":357,"contract":"contracts/DstackKms.sol:DstackKms","label":"kmsAllowedDeviceIds","offset":0,"slot":"7","type":"t_mapping(t_bytes32,t_bool)"},{"astId":361,"contract":"contracts/DstackKms.sol:DstackKms","label":"allowedOsImages","offset":0,"slot":"8","type":"t_mapping(t_bytes32,t_bool)"},{"astId":363,"contract":"contracts/DstackKms.sol:DstackKms","label":"appImplementation","offset":0,"slot":"9","type":"t_address"},{"astId":905,"contract":"contracts/DstackKms.sol:DstackKms","label":"__gap","offset":0,"slot":"10","type":"t_array(t_uint256)50_storage"}],"types":{"t_address":{"encoding":"inplace","label":"address","numberOfBytes":"20"},"t_array(t_uint256)50_storage":{"encoding":"inplace","label":"uint256[50]","numberOfBytes":"1600","base":"t_uint256"},"t_bool":{"encoding":"inplace","label":"bool","numberOfBytes":"1"},"t_bytes32":{"encoding":"inplace","label":"bytes32","numberOfBytes":"32"},"t_bytes_storage":{"encoding":"bytes","label":"bytes","numberOfBytes":"32"},"t_mapping(t_address,t_bool)":{"encoding":"mapping","key":"t_address","label":"mapping(address => bool)","numberOfBytes":"32","value":"t_bool"},"t_mapping(t_bytes32,t_bool)":{"encoding":"mapping","key":"t_bytes32","label":"mapping(bytes32 => bool)","numberOfBytes":"32","value":"t_bool"},"t_string_storage":{"encoding":"bytes","label":"string","numberOfBytes":"32"},"t_struct(KmsInfo)339_storage":{"encoding":"inplace","label":"struct DstackKms.KmsInfo","numberOfBytes":"128","members":[{"astId":332,"contract":"contracts/DstackKms.sol:DstackKms","label":"k256Pubkey","offset":0,"slot":"0","type":"t_bytes_storage"},{"astId":334,"contract":"contracts/DstackKms.sol:DstackKms","label":"caPubkey","offset":0,"slot":"1","type":"t_bytes_storage"},{"astId":336,"contract":"contracts/DstackKms.sol:DstackKms","label":"quote","offset":0,"slot":"2","type":"t_bytes_storage"},{"astId":338,"contract":"contracts/DstackKms.sol:DstackKms","label":"eventlog","offset":0,"slot":"3","type":"t_bytes_storage"}]},"t_uint256":{"encoding":"inplace","label":"uint256","numberOfBytes":"32"}}},"id":1}