{"abi":[{"type":"constructor","inputs":[],"stateMutability":"nonpayable"},{"type":"function","name":"UPGRADE_INTERFACE_VERSION","inputs":[],"outputs":[{"name":"","type":"string","internalType":"string"}],"stateMutability":"view"},{"type":"function","name":"addComposeHash","inputs":[{"name":"composeHash","type":"bytes32","internalType":"bytes32"}],"outputs":[],"stateMutability":"nonpayable"},{"type":"function","name":"addDevice","inputs":[{"name":"deviceId","type":"bytes32","internalType":"bytes32"}],"outputs":[],"stateMutability":"nonpayable"},{"type":"function","name":"allowAnyDevice","inputs":[],"outputs":[{"name":"","type":"bool","internalType":"bool"}],"stateMutability":"view"},{"type":"function","name":"allowedComposeHashes","inputs":[{"name":"","type":"bytes32","internalType":"bytes32"}],"outputs":[{"name":"","type":"bool","internalType":"bool"}],"stateMutability":"view"},{"type":"function","name":"allowedDeviceIds","inputs":[{"name":"","type":"bytes32","internalType":"bytes32"}],"outputs":[{"name":"","type":"bool","internalType":"bool"}],"stateMutability":"view"},{"type":"function","name":"disableUpgrades","inputs":[],"outputs":[],"stateMutability":"nonpayable"},{"type":"function","name":"initialize","inputs":[{"name":"initialOwner","type":"address","internalType":"address"},{"name":"_disableUpgrades","type":"bool","internalType":"bool"},{"name":"_allowAnyDevice","type":"bool","internalType":"bool"},{"name":"initialDeviceId","type":"bytes32","internalType":"bytes32"},{"name":"initialComposeHash","type":"bytes32","internalType":"bytes32"}],"outputs":[],"stateMutability":"nonpayable"},{"type":"function","name":"isAppAllowed","inputs":[{"name":"bootInfo","type":"tuple","internalType":"struct IAppAuth.AppBootInfo","components":[{"name":"appId","type":"address","internalType":"address"},{"name":"composeHash","type":"bytes32","internalType":"bytes32"},{"name":"instanceId","type":"address","internalType":"address"},{"name":"deviceId","type":"bytes32","internalType":"bytes32"},{"name":"mrAggregated","type":"bytes32","internalType":"bytes32"},{"name":"mrSystem","type":"bytes32","internalType":"bytes32"},{"name":"osImageHash","type":"bytes32","internalType":"bytes32"},{"name":"tcbStatus","type":"string","internalType":"string"},{"name":"advisoryIds","type":"string[]","internalType":"string[]"}]}],"outputs":[{"name":"isAllowed","type":"bool","internalType":"bool"},{"name":"reason","type":"string","internalType":"string"}],"stateMutability":"view"},{"type":"function","name":"owner","inputs":[],"outputs":[{"name":"","type":"address","internalType":"address"}],"stateMutability":"view"},{"type":"function","name":"proxiableUUID","inputs":[],"outputs":[{"name":"","type":"bytes32","internalType":"bytes32"}],"stateMutability":"view"},{"type":"function","name":"removeComposeHash","inputs":[{"name":"composeHash","type":"bytes32","internalType":"bytes32"}],"outputs":[],"stateMutability":"nonpayable"},{"type":"function","name":"removeDevice","inputs":[{"name":"deviceId","type":"bytes32","internalType":"bytes32"}],"outputs":[],"stateMutability":"nonpayable"},{"type":"function","name":"renounceOwnership","inputs":[],"outputs":[],"stateMutability":"nonpayable"},{"type":"function","name":"setAllowAnyDevice","inputs":[{"name":"_allowAnyDevice","type":"bool","internalType":"bool"}],"outputs":[],"stateMutability":"nonpayable"},{"type":"function","name":"supportsInterface","inputs":[{"name":"interfaceId","type":"bytes4","internalType":"bytes4"}],"outputs":[{"name":"","type":"bool","internalType":"bool"}],"stateMutability":"view"},{"type":"function","name":"transferOwnership","inputs":[{"name":"newOwner","type":"address","internalType":"address"}],"outputs":[],"stateMutability":"nonpayable"},{"type":"function","name":"upgradeToAndCall","inputs":[{"name":"newImplementation","type":"address","internalType":"address"},{"name":"data","type":"bytes","internalType":"bytes"}],"outputs":[],"stateMutability":"payable"},{"type":"event","name":"AllowAnyDeviceSet","inputs":[{"name":"allowAny","type":"bool","indexed":false,"internalType":"bool"}],"anonymous":false},{"type":"event","name":"ComposeHashAdded","inputs":[{"name":"composeHash","type":"bytes32","indexed":false,"internalType":"bytes32"}],"anonymous":false},{"type":"event","name":"ComposeHashRemoved","inputs":[{"name":"composeHash","type":"bytes32","indexed":false,"internalType":"bytes32"}],"anonymous":false},{"type":"event","name":"DeviceAdded","inputs":[{"name":"deviceId","type":"bytes32","indexed":false,"internalType":"bytes32"}],"anonymous":false},{"type":"event","name":"DeviceRemoved","inputs":[{"name":"deviceId","type":"bytes32","indexed":false,"internalType":"bytes32"}],"anonymous":false},{"type":"event","name":"Initialized","inputs":[{"name":"version","type":"uint64","indexed":false,"internalType":"uint64"}],"anonymous":false},{"type":"event","name":"OwnershipTransferred","inputs":[{"name":"previousOwner","type":"address","indexed":true,"internalType":"address"},{"name":"newOwner","type":"address","indexed":true,"internalType":"address"}],"anonymous":false},{"type":"event","name":"Upgraded","inputs":[{"name":"implementation","type":"address","indexed":true,"internalType":"address"}],"anonymous":false},{"type":"event","name":"UpgradesDisabled","inputs":[],"anonymous":false},{"type":"error","name":"AddressEmptyCode","inputs":[{"name":"target","type":"address","internalType":"address"}]},{"type":"error","name":"ERC1967InvalidImplementation","inputs":[{"name":"implementation","type":"address","internalType":"address"}]},{"type":"error","name":"ERC1967NonPayable","inputs":[]},{"type":"error","name":"FailedCall","inputs":[]},{"type":"error","name":"InvalidInitialization","inputs":[]},{"type":"error","name":"NotInitializing","inputs":[]},{"type":"error","name":"OwnableInvalidOwner","inputs":[{"name":"owner","type":"address","internalType":"address"}]},{"type":"error","name":"OwnableUnauthorizedAccount","inputs":[{"name":"account","type":"address","internalType":"address"}]},{"type":"error","name":"UUPSUnauthorizedCallContext","inputs":[]},{"type":"error","name":"UUPSUnsupportedProxiableUUID","inputs":[{"name":"slot","type":"bytes32","internalType":"bytes32"}]}],"bytecode":{"object":"0x60a060405230608052348015610013575f80fd5b5061001c610021565b6100d3565b7ff0c57e16840df040f15088dc2f81fe391c3923bec73e23a9662efc9c229c6a00805468010000000000000000900460ff16156100715760405163f92ee8a960e01b815260040160405180910390fd5b80546001600160401b03908116146100d05780546001600160401b0319166001600160401b0390811782556040519081527fc7f505b2f371ae2175ee4913f4499e1f2633a7b5936321eed1cdaeb6115181d29060200160405180910390a15b50565b6080516111866100f95f395f81816109fc01528181610a250152610bc601526111865ff3fe608060405260043610610105575f3560e01c806367b3f22c11610092578063ad3cb1cc11610062578063ad3cb1cc146102e2578063bf8b211b1461031f578063dfc772231461034d578063ec6690361461036c578063f2fde38b14610380575f80fd5b806367b3f22c1461024a578063715018a6146102695780637c4beeb81461027d5780638da5cb5b1461029c575f80fd5b80632a819728116100d85780632a819728146101aa5780632f6622e5146101c95780633440a16a146101f75780634f1ef2861461021557806352d1902d14610228575f80fd5b806301ffc9a714610109578063187515ca1461013d5780631d2662001461015e5780631e0791981461017d575b5f80fd5b348015610114575f80fd5b50610128610123366004610e8a565b61039f565b60405190151581526020015b60405180910390f35b348015610148575f80fd5b5061015c610157366004610edb565b6103f0565b005b348015610169575f80fd5b5061015c610178366004610f2c565b61061e565b348015610188575f80fd5b5061019c610197366004610f43565b610678565b604051610134929190610fc8565b3480156101b5575f80fd5b5061015c6101c4366004610f2c565b61074c565b3480156101d4575f80fd5b506101286101e3366004610f2c565b5f6020819052908152604090205460ff1681565b348015610202575f80fd5b5060015461012890610100900460ff1681565b61015c610223366004610ffe565b61079e565b348015610233575f80fd5b5061023c6107bd565b604051908152602001610134565b348015610255575f80fd5b5061015c610264366004610f2c565b6107d8565b348015610274575f80fd5b5061015c610824565b348015610288575f80fd5b5061015c6102973660046110ba565b610837565b3480156102a7575f80fd5b507f9016d09d72d40fdae2fd8ceac6b6234c7706214fd39c1cd1e609a0528c199300546040516001600160a01b039091168152602001610134565b3480156102ed575f80fd5b50610312604051806040016040528060058152602001640352e302e360dc1b81525081565b60405161013491906110d3565b34801561032a575f80fd5b50610128610339366004610f2c565b60026020525f908152604090205460ff1681565b348015610358575f80fd5b5061015c610367366004610f2c565b610888565b348015610377575f80fd5b5061015c6108da565b34801561038b575f80fd5b5061015c61039a3660046110e5565b610918565b5f6303c0f23360e31b6001600160e01b0319831614806103cf5750638fd3752760e01b6001600160e01b03198316145b806103ea57506301ffc9a760e01b6001600160e01b03198316145b92915050565b5f6103f9610955565b805490915060ff600160401b820416159067ffffffffffffffff165f811580156104205750825b90505f8267ffffffffffffffff16600114801561043c5750303b155b90508115801561044a575080155b156104685760405163f92ee8a960e01b815260040160405180910390fd5b845467ffffffffffffffff19166001178555831561049257845460ff60401b1916600160401b1785555b6001600160a01b038a166104e55760405162461bcd60e51b8152602060048201526015602482015274696e76616c6964206f776e6572206164647265737360581b60448201526064015b60405180910390fd5b6001805461ffff19168a151561ff001916176101008a151502179055861561055a575f8781526002602052604090819020805460ff19166001179055517f67fc71ab96fe3fa3c6f78e9a00e635d591b7333ce611c0380bc577aac702243b906105519089815260200190565b60405180910390a15b85156105b3575f8681526020819052604090819020805460ff19166001179055517ffecb34306dd9d8b785b54d65489d06afc8822a0893ddacedff40c50a4942d0af906105aa9088815260200190565b60405180910390a15b6105bc8a61097d565b6105c461098e565b6105cc61098e565b831561061257845460ff60401b19168555604051600181527fc7f505b2f371ae2175ee4913f4499e1f2633a7b5936321eed1cdaeb6115181d29060200160405180910390a15b50505050505050505050565b610626610996565b5f8181526002602052604090819020805460ff19169055517fe0862975ac517b0478d308012afabc4bc37c23874a18144d7f2dfb852ff95c2c9061066d9083815260200190565b60405180910390a150565b6020808201355f90815290819052604081205460609060ff166106d257505060408051808201909152601881527f436f6d706f73652068617368206e6f7420616c6c6f776564000000000000000060208201525f92909150565b600154610100900460ff161580156106fd575060608301355f9081526002602052604090205460ff16155b1561073457505060408051808201909152601281527111195d9a58d9481b9bdd08185b1b1bddd95960721b60208201525f92909150565b505060408051602081019091525f8152600192909150565b610754610996565b5f8181526002602052604090819020805460ff19166001179055517f67fc71ab96fe3fa3c6f78e9a00e635d591b7333ce611c0380bc577aac702243b9061066d9083815260200190565b6107a66109f1565b6107af82610a95565b6107b98282610afa565b5050565b5f6107c6610bbb565b505f8051602061113183398151915290565b6107e0610996565b5f8181526020818152604091829020805460ff1916905590518281527f755b79bd4b0eeab344d032284a99003b2ddc018b646752ac72d681593a6e8947910161066d565b61082c610996565b6108355f610c04565b565b61083f610996565b600180548215156101000261ff00199091161790556040517fbb2cdb6c7b362202d40373f87bc4788301cca658f91711ac1662e1ad2cba4a209061066d90831515815260200190565b610890610996565b5f8181526020819052604090819020805460ff19166001179055517ffecb34306dd9d8b785b54d65489d06afc8822a0893ddacedff40c50a4942d0af9061066d9083815260200190565b6108e2610996565b6001805460ff1916811790556040517f0e5daa943fcd7e7182d0e893d180695c2ea9f6f1b4a1c5432faf14cf17b774e8905f90a1565b610920610996565b6001600160a01b03811661094957604051631e4fbdf760e01b81525f60048201526024016104dc565b61095281610c04565b50565b5f807ff0c57e16840df040f15088dc2f81fe391c3923bec73e23a9662efc9c229c6a006103ea565b610985610c74565b61095281610c99565b610835610c74565b336109c87f9016d09d72d40fdae2fd8ceac6b6234c7706214fd39c1cd1e609a0528c199300546001600160a01b031690565b6001600160a01b0316146108355760405163118cdaa760e01b81523360048201526024016104dc565b306001600160a01b037f0000000000000000000000000000000000000000000000000000000000000000161480610a7757507f00000000000000000000000000000000000000000000000000000000000000006001600160a01b0316610a6b5f80516020611131833981519152546001600160a01b031690565b6001600160a01b031614155b156108355760405163703e46dd60e11b815260040160405180910390fd5b610a9d610996565b60015460ff16156109525760405162461bcd60e51b815260206004820152602160248201527f557067726164657320617265207065726d616e656e746c792064697361626c656044820152601960fa1b60648201526084016104dc565b816001600160a01b03166352d1902d6040518163ffffffff1660e01b8152600401602060405180830381865afa925050508015610b54575060408051601f3d908101601f19168201909252610b51918101906110fe565b60015b610b7c57604051634c9c8ce360e01b81526001600160a01b03831660048201526024016104dc565b5f805160206111318339815191528114610bac57604051632a87526960e21b8152600481018290526024016104dc565b610bb68383610ca1565b505050565b306001600160a01b037f000000000000000000000000000000000000000000000000000000000000000016146108355760405163703e46dd60e11b815260040160405180910390fd5b7f9016d09d72d40fdae2fd8ceac6b6234c7706214fd39c1cd1e609a0528c19930080546001600160a01b031981166001600160a01b03848116918217845560405192169182907f8be0079c531659141344cd1fd0a4f28419497f9722a3daafe3b4186f6b6457e0905f90a3505050565b610c7c610cf6565b61083557604051631afcd79f60e31b815260040160405180910390fd5b610920610c74565b610caa82610d0f565b6040516001600160a01b038316907fbc7cd75a20ee27fd9adebab32041f755214dbc6bffa90cc0225b39da2e5c2d3b905f90a2805115610cee57610bb68282610d72565b6107b9610de4565b5f610cff610955565b54600160401b900460ff16919050565b806001600160a01b03163b5f03610d4457604051634c9c8ce360e01b81526001600160a01b03821660048201526024016104dc565b5f8051602061113183398151915280546001600160a01b0319166001600160a01b0392909216919091179055565b60605f80846001600160a01b031684604051610d8e9190611115565b5f60405180830381855af49150503d805f8114610dc6576040519150601f19603f3d011682016040523d82523d5f602084013e610dcb565b606091505b5091509150610ddb858383610e03565b95945050505050565b34156108355760405163b398979f60e01b815260040160405180910390fd5b606082610e1857610e1382610e62565b610e5b565b8151158015610e2f57506001600160a01b0384163b155b15610e5857604051639996b31560e01b81526001600160a01b03851660048201526024016104dc565b50805b9392505050565b805115610e7157805160208201fd5b60405163d6bda27560e01b815260040160405180910390fd5b5f60208284031215610e9a575f80fd5b81356001600160e01b031981168114610e5b575f80fd5b80356001600160a01b0381168114610ec7575f80fd5b919050565b80358015158114610ec7575f80fd5b5f805f805f60a08688031215610eef575f80fd5b610ef886610eb1565b9450610f0660208701610ecc565b9350610f1460408701610ecc565b94979396509394606081013594506080013592915050565b5f60208284031215610f3c575f80fd5b5035919050565b5f60208284031215610f53575f80fd5b813567ffffffffffffffff811115610f69575f80fd5b82016101208185031215610e5b575f80fd5b5f5b83811015610f95578181015183820152602001610f7d565b50505f910152565b5f8151808452610fb4816020860160208601610f7b565b601f01601f19169290920160200192915050565b8215158152604060208201525f610fe26040830184610f9d565b949350505050565b634e487b7160e01b5f52604160045260245ffd5b5f806040838503121561100f575f80fd5b61101883610eb1565b9150602083013567ffffffffffffffff80821115611034575f80fd5b818501915085601f830112611047575f80fd5b81358181111561105957611059610fea565b604051601f8201601f19908116603f0116810190838211818310171561108157611081610fea565b81604052828152886020848701011115611099575f80fd5b826020860160208301375f6020848301015280955050505050509250929050565b5f602082840312156110ca575f80fd5b610e5b82610ecc565b602081525f610e5b6020830184610f9d565b5f602082840312156110f5575f80fd5b610e5b82610eb1565b5f6020828403121561110e575f80fd5b5051919050565b5f8251611126818460208701610f7b565b919091019291505056fe360894a13ba1a3210667c828492db98dca3e2076cc3735a920a3ca505d382bbca2646970667358221220817e049a578bdc735301b8584223ec07b0e58e20cffb9ac0d42091d809313ec664736f6c63430008160033","linkReferences":{}},"methodIdentifiers":{"UPGRADE_INTERFACE_VERSION()":"ad3cb1cc","addComposeHash(bytes32)":"dfc77223","addDevice(bytes32)":"2a819728","allowAnyDevice()":"3440a16a","allowedComposeHashes(bytes32)":"2f6622e5","allowedDeviceIds(bytes32)":"bf8b211b","disableUpgrades()":"ec669036","initialize(address,bool,bool,bytes32,bytes32)":"187515ca","isAppAllowed((address,bytes32,address,bytes32,bytes32,bytes32,bytes32,string,string[]))":"1e079198","owner()":"8da5cb5b","proxiableUUID()":"52d1902d","removeComposeHash(bytes32)":"67b3f22c","removeDevice(bytes32)":"1d266200","renounceOwnership()":"715018a6","setAllowAnyDevice(bool)":"7c4beeb8","supportsInterface(bytes4)":"01ffc9a7","transferOwnership(address)":"f2fde38b","upgradeToAndCall(address,bytes)":"4f1ef286"},"storageLayout":{"storage":[{"astId":1037,"contract":"contracts/test-utils/DstackAppV1.sol:DstackAppV1","label":"allowedComposeHashes","offset":0,"slot":"0","type":"t_mapping(t_bytes32,t_bool)"},{"astId":1039,"contract":"contracts/test-utils/DstackAppV1.sol:DstackAppV1","label":"_upgradesDisabled","offset":0,"slot":"1","type":"t_bool"},{"astId":1041,"contract":"contracts/test-utils/DstackAppV1.sol:DstackAppV1","label":"allowAnyDevice","offset":1,"slot":"1","type":"t_bool"},{"astId":1045,"contract":"contracts/test-utils/DstackAppV1.sol:DstackAppV1","label":"allowedDeviceIds","offset":0,"slot":"2","type":"t_mapping(t_bytes32,t_bool)"},{"astId":1325,"contract":"contracts/test-utils/DstackAppV1.sol:DstackAppV1","label":"__gap","offset":0,"slot":"3","type":"t_array(t_uint256)50_storage"}],"types":{"t_array(t_uint256)50_storage":{"encoding":"inplace","label":"uint256[50]","numberOfBytes":"1600","base":"t_uint256"},"t_bool":{"encoding":"inplace","label":"bool","numberOfBytes":"1"},"t_bytes32":{"encoding":"inplace","label":"bytes32","numberOfBytes":"32"},"t_mapping(t_bytes32,t_bool)":{"encoding":"mapping","key":"t_bytes32","label":"mapping(bytes32 => bool)","numberOfBytes":"32","value":"t_bool"},"t_uint256":{"encoding":"inplace","label":"uint256","numberOfBytes":"32"}}},"id":4}