{"abi":[{"type":"constructor","inputs":[],"stateMutability":"nonpayable"},{"type":"function","name":"UPGRADE_INTERFACE_VERSION","inputs":[],"outputs":[{"name":"","type":"string","internalType":"string"}],"stateMutability":"view"},{"type":"function","name":"addKmsAggregatedMr","inputs":[{"name":"mrAggregated","type":"bytes32","internalType":"bytes32"}],"outputs":[],"stateMutability":"nonpayable"},{"type":"function","name":"addKmsDevice","inputs":[{"name":"deviceId","type":"bytes32","internalType":"bytes32"}],"outputs":[],"stateMutability":"nonpayable"},{"type":"function","name":"addOsImageHash","inputs":[{"name":"osImageHash","type":"bytes32","internalType":"bytes32"}],"outputs":[],"stateMutability":"nonpayable"},{"type":"function","name":"allowedOsImages","inputs":[{"name":"","type":"bytes32","internalType":"bytes32"}],"outputs":[{"name":"","type":"bool","internalType":"bool"}],"stateMutability":"view"},{"type":"function","name":"gatewayAppId","inputs":[],"outputs":[{"name":"","type":"string","internalType":"string"}],"stateMutability":"view"},{"type":"function","name":"initialize","inputs":[{"name":"initialOwner","type":"address","internalType":"address"}],"outputs":[],"stateMutability":"nonpayable"},{"type":"function","name":"isAppAllowed","inputs":[{"name":"bootInfo","type":"tuple","internalType":"struct IAppAuth.AppBootInfo","components":[{"name":"appId","type":"address","internalType":"address"},{"name":"composeHash","type":"bytes32","internalType":"bytes32"},{"name":"instanceId","type":"address","internalType":"address"},{"name":"deviceId","type":"bytes32","internalType":"bytes32"},{"name":"mrAggregated","type":"bytes32","internalType":"bytes32"},{"name":"mrSystem","type":"bytes32","internalType":"bytes32"},{"name":"osImageHash","type":"bytes32","internalType":"bytes32"},{"name":"tcbStatus","type":"string","internalType":"string"},{"name":"advisoryIds","type":"string[]","internalType":"string[]"}]}],"outputs":[{"name":"isAllowed","type":"bool","internalType":"bool"},{"name":"reason","type":"string","internalType":"string"}],"stateMutability":"view"},{"type":"function","name":"kmsAllowedAggregatedMrs","inputs":[{"name":"","type":"bytes32","internalType":"bytes32"}],"outputs":[{"name":"","type":"bool","internalType":"bool"}],"stateMutability":"view"},{"type":"function","name":"kmsAllowedDeviceIds","inputs":[{"name":"","type":"bytes32","internalType":"bytes32"}],"outputs":[{"name":"","type":"bool","internalType":"bool"}],"stateMutability":"view"},{"type":"function","name":"kmsInfo","inputs":[],"outputs":[{"name":"k256Pubkey","type":"bytes","internalType":"bytes"},{"name":"caPubkey","type":"bytes","internalType":"bytes"},{"name":"quote","type":"bytes","internalType":"bytes"},{"name":"eventlog","type":"bytes","internalType":"bytes"}],"stateMutability":"view"},{"type":"function","name":"owner","inputs":[],"outputs":[{"name":"","type":"address","internalType":"address"}],"stateMutability":"view"},{"type":"function","name":"proxiableUUID","inputs":[],"outputs":[{"name":"","type":"bytes32","internalType":"bytes32"}],"stateMutability":"view"},{"type":"function","name":"registerApp","inputs":[{"name":"appId","type":"address","internalType":"address"}],"outputs":[],"stateMutability":"nonpayable"},{"type":"function","name":"registeredApps","inputs":[{"name":"","type":"address","internalType":"address"}],"outputs":[{"name":"","type":"bool","internalType":"bool"}],"stateMutability":"view"},{"type":"function","name":"removeKmsAggregatedMr","inputs":[{"name":"mrAggregated","type":"bytes32","internalType":"bytes32"}],"outputs":[],"stateMutability":"nonpayable"},{"type":"function","name":"removeKmsDevice","inputs":[{"name":"deviceId","type":"bytes32","internalType":"bytes32"}],"outputs":[],"stateMutability":"nonpayable"},{"type":"function","name":"removeOsImageHash","inputs":[{"name":"osImageHash","type":"bytes32","internalType":"bytes32"}],"outputs":[],"stateMutability":"nonpayable"},{"type":"function","name":"renounceOwnership","inputs":[],"outputs":[],"stateMutability":"nonpayable"},{"type":"function","name":"setGatewayAppId","inputs":[{"name":"appId","type":"string","internalType":"string"}],"outputs":[],"stateMutability":"nonpayable"},{"type":"function","name":"setKmsInfo","inputs":[{"name":"info","type":"tuple","internalType":"struct DstackKmsV1.KmsInfo","components":[{"name":"k256Pubkey","type":"bytes","internalType":"bytes"},{"name":"caPubkey","type":"bytes","internalType":"bytes"},{"name":"quote","type":"bytes","internalType":"bytes"},{"name":"eventlog","type":"bytes","internalType":"bytes"}]}],"outputs":[],"stateMutability":"nonpayable"},{"type":"function","name":"supportsInterface","inputs":[{"name":"interfaceId","type":"bytes4","internalType":"bytes4"}],"outputs":[{"name":"","type":"bool","internalType":"bool"}],"stateMutability":"view"},{"type":"function","name":"transferOwnership","inputs":[{"name":"newOwner","type":"address","internalType":"address"}],"outputs":[],"stateMutability":"nonpayable"},{"type":"function","name":"upgradeToAndCall","inputs":[{"name":"newImplementation","type":"address","internalType":"address"},{"name":"data","type":"bytes","internalType":"bytes"}],"outputs":[],"stateMutability":"payable"},{"type":"event","name":"AppRegistered","inputs":[{"name":"appId","type":"address","indexed":false,"internalType":"address"}],"anonymous":false},{"type":"event","name":"GatewayAppIdSet","inputs":[{"name":"gatewayAppId","type":"string","indexed":false,"internalType":"string"}],"anonymous":false},{"type":"event","name":"Initialized","inputs":[{"name":"version","type":"uint64","indexed":false,"internalType":"uint64"}],"anonymous":false},{"type":"event","name":"KmsAggregatedMrAdded","inputs":[{"name":"mrAggregated","type":"bytes32","indexed":false,"internalType":"bytes32"}],"anonymous":false},{"type":"event","name":"KmsAggregatedMrRemoved","inputs":[{"name":"mrAggregated","type":"bytes32","indexed":false,"internalType":"bytes32"}],"anonymous":false},{"type":"event","name":"KmsDeviceAdded","inputs":[{"name":"deviceId","type":"bytes32","indexed":false,"internalType":"bytes32"}],"anonymous":false},{"type":"event","name":"KmsDeviceRemoved","inputs":[{"name":"deviceId","type":"bytes32","indexed":false,"internalType":"bytes32"}],"anonymous":false},{"type":"event","name":"KmsInfoSet","inputs":[{"name":"k256Pubkey","type":"bytes","indexed":false,"internalType":"bytes"}],"anonymous":false},{"type":"event","name":"OsImageHashAdded","inputs":[{"name":"osImageHash","type":"bytes32","indexed":false,"internalType":"bytes32"}],"anonymous":false},{"type":"event","name":"OsImageHashRemoved","inputs":[{"name":"osImageHash","type":"bytes32","indexed":false,"internalType":"bytes32"}],"anonymous":false},{"type":"event","name":"OwnershipTransferred","inputs":[{"name":"previousOwner","type":"address","indexed":true,"internalType":"address"},{"name":"newOwner","type":"address","indexed":true,"internalType":"address"}],"anonymous":false},{"type":"event","name":"Upgraded","inputs":[{"name":"implementation","type":"address","indexed":true,"internalType":"address"}],"anonymous":false},{"type":"error","name":"AddressEmptyCode","inputs":[{"name":"target","type":"address","internalType":"address"}]},{"type":"error","name":"ERC1967InvalidImplementation","inputs":[{"name":"implementation","type":"address","internalType":"address"}]},{"type":"error","name":"ERC1967NonPayable","inputs":[]},{"type":"error","name":"FailedCall","inputs":[]},{"type":"error","name":"InvalidInitialization","inputs":[]},{"type":"error","name":"NotInitializing","inputs":[]},{"type":"error","name":"OwnableInvalidOwner","inputs":[{"name":"owner","type":"address","internalType":"address"}]},{"type":"error","name":"OwnableUnauthorizedAccount","inputs":[{"name":"account","type":"address","internalType":"address"}]},{"type":"error","name":"UUPSUnauthorizedCallContext","inputs":[]},{"type":"error","name":"UUPSUnsupportedProxiableUUID","inputs":[{"name":"slot","type":"bytes32","internalType":"bytes32"}]}],"bytecode":{"object":"0x60a060405230608052348015610013575f80fd5b5061001c610021565b6100d3565b7ff0c57e16840df040f15088dc2f81fe391c3923bec73e23a9662efc9c229c6a00805468010000000000000000900460ff16156100715760405163f92ee8a960e01b815260040160405180910390fd5b80546001600160401b03908116146100d05780546001600160401b0319166001600160401b0390811782556040519081527fc7f505b2f371ae2175ee4913f4499e1f2633a7b5936321eed1cdaeb6115181d29060200160405180910390a15b50565b608051611b0c6100f95f395f8181610e8a01528181610eb30152610ff70152611b0c5ff3fe608060405260043610610147575f3560e01c8063715018a6116100b35780639e6f31141161006d5780639e6f3114146103d6578063a6c4cce9146103f5578063ad3cb1cc14610423578063c4d66de814610453578063f2fde38b14610472578063f6fe4f4014610491575f80fd5b8063715018a6146102ef5780637d025352146103035780638da5cb5b146103225780639425bac61461036857806395f51931146103875780639a4e1d18146103a8575f80fd5b80632adee48d116101045780632adee48d1461023e5780633971db271461025d5780633e32d3461461027c5780634d5922a11461029b5780634f1ef286146102ba57806352d1902d146102cd575f80fd5b806301ffc9a71461014b57806306a3ae961461017f57806309177063146101a057806313eb9770146101c457806317a1d80f146101f25780631e07919814610211575b5f80fd5b348015610156575f80fd5b5061016a6101653660046112fc565b6104bf565b60405190151581526020015b60405180910390f35b34801561018a575f80fd5b5061019e610199366004611323565b6104f5565b005b3480156101ab575f80fd5b506101b4610552565b6040516101769493929190611387565b3480156101cf575f80fd5b5061016a6101de366004611323565b60076020525f908152604090205460ff1681565b3480156101fd575f80fd5b5061019e61020c3660046113f9565b610785565b34801561021c575f80fd5b5061023061022b366004611412565b610824565b604051610176929190611449565b348015610249575f80fd5b5061019e610258366004611323565b6109a5565b348015610268575f80fd5b5061019e610277366004611538565b6109f4565b348015610287575f80fd5b5061019e610296366004611323565b610a38565b3480156102a6575f80fd5b5061019e6102b5366004611323565b610a8a565b61019e6102c836600461159a565b610adc565b3480156102d8575f80fd5b506102e1610afb565b604051908152602001610176565b3480156102fa575f80fd5b5061019e610b16565b34801561030e575f80fd5b5061019e61031d3660046115e4565b610b29565b34801561032d575f80fd5b507f9016d09d72d40fdae2fd8ceac6b6234c7706214fd39c1cd1e609a0528c199300546040516001600160a01b039091168152602001610176565b348015610373575f80fd5b5061019e610382366004611323565b610bb6565b348015610392575f80fd5b5061039b610c05565b60405161017691906116b4565b3480156103b3575f80fd5b5061016a6103c2366004611323565b60086020525f908152604090205460ff1681565b3480156103e1575f80fd5b5061019e6103f0366004611323565b610c91565b348015610400575f80fd5b5061016a61040f3660046113f9565b60056020525f908152604090205460ff1681565b34801561042e575f80fd5b5061039b604051806040016040528060058152602001640352e302e360dc1b81525081565b34801561045e575f80fd5b5061019e61046d3660046113f9565b610ce0565b34801561047d575f80fd5b5061019e61048c3660046113f9565b610de7565b34801561049c575f80fd5b5061016a6104ab366004611323565b60066020525f908152604090205460ff1681565b5f6303c0f23360e31b6001600160e01b0319831614806104ef57506301ffc9a760e01b6001600160e01b03198316145b92915050565b6104fd610e24565b5f8181526008602052604090819020805460ff19166001179055517f4911843506849c85a5ca6e6e2c01eed2d3ab86baba619517a2aad9d5ab2aeff2906105479083815260200190565b60405180910390a150565b5f80548190610560906116c6565b80601f016020809104026020016040519081016040528092919081815260200182805461058c906116c6565b80156105d75780601f106105ae576101008083540402835291602001916105d7565b820191905f5260205f20905b8154815290600101906020018083116105ba57829003601f168201915b5050505050908060010180546105ec906116c6565b80601f0160208091040260200160405190810160405280929190818152602001828054610618906116c6565b80156106635780601f1061063a57610100808354040283529160200191610663565b820191905f5260205f20905b81548152906001019060200180831161064657829003601f168201915b505050505090806002018054610678906116c6565b80601f01602080910402602001604051908101604052809291908181526020018280546106a4906116c6565b80156106ef5780601f106106c6576101008083540402835291602001916106ef565b820191905f5260205f20905b8154815290600101906020018083116106d257829003601f168201915b505050505090806003018054610704906116c6565b80601f0160208091040260200160405190810160405280929190818152602001828054610730906116c6565b801561077b5780601f106107525761010080835404028352916020019161077b565b820191905f5260205f20905b81548152906001019060200180831161075e57829003601f168201915b5050505050905084565b6001600160a01b0381166107d15760405162461bcd60e51b815260206004820152600e60248201526d125b9d985b1a5908185c1c08125160921b60448201526064015b60405180910390fd5b6001600160a01b0381165f81815260056020908152604091829020805460ff1916600117905590519182527f0d540ad8f39e07d19909687352b9fa017405d93c91a6760981fbae9cf28bfef79101610547565b5f606060058261083760208601866113f9565b6001600160a01b0316815260208101919091526040015f205460ff16610889575050604080518082019091526012815271105c1c081b9bdd081c9959da5cdd195c995960721b60208201525f92909150565b60c08301355f9081526008602052604090205460ff166108e057505060408051808201909152601781527f4f5320696d616765206973206e6f7420616c6c6f77656400000000000000000060208201525f92909150565b6108fc6108f060208501856113f9565b3b63ffffffff16151590565b610923575f604051806060016040528060238152602001611ab46023913991509150915091565b61093060208401846113f9565b6001600160a01b0316631e079198846040518263ffffffff1660e01b815260040161095b9190611811565b5f60405180830381865afa158015610975573d5f803e3d5ffd5b505050506040513d5f823e601f3d908101601f1916820160405261099c91908101906118d0565b91509150915091565b6109ad610e24565b5f8181526006602052604090819020805460ff19169055517f54cd662e41eec7ddf0f32f034b2533e481b471dd3ea978222d609ec8fffb1bb0906105479083815260200190565b6109fc610e24565b6004610a0882826119a6565b507f5b2b64f770ea5266055ebd3ebf205ef06cbfa738e62684edf0e28356e34acf068160405161054791906116b4565b610a40610e24565b5f8181526006602052604090819020805460ff19166001179055517f68615a0b92795750b3d180ff73429e1291d225e449eee954a567b91104fd9837906105479083815260200190565b610a92610e24565b5f8181526007602052604090819020805460ff19166001179055517ff2b290637b1193e12eb38ab32b986303639b1687cc2cd1e25f993e6eae2f4041906105479083815260200190565b610ae4610e7f565b610aed82610f23565b610af78282610f2b565b5050565b5f610b04610fec565b505f80516020611a9483398151915290565b610b1e610e24565b610b275f611035565b565b610b31610e24565b805181905f908190610b4390826119a6565b5060208201516001820190610b5890826119a6565b5060408201516002820190610b6d90826119a6565b5060608201516003820190610b8290826119a6565b505081516040517f77cdad119a452bbd96c45635758fc4af8a6bde3deaccf3fada634ddf9a162706925061054791906116b4565b610bbe610e24565b5f8181526008602052604090819020805460ff19169055517f99b3cee95daf3138d0c982299cd0264f5b7a61aa629b42b92f3ec8966aa7f6fe906105479083815260200190565b60048054610c12906116c6565b80601f0160208091040260200160405190810160405280929190818152602001828054610c3e906116c6565b8015610c895780601f10610c6057610100808354040283529160200191610c89565b820191905f5260205f20905b815481529060010190602001808311610c6c57829003601f168201915b505050505081565b610c99610e24565b5f8181526007602052604090819020805460ff19169055517f1a9888a45e3df8b7e6bb3090747d598d2a0d78e61388161a90799f54df8f4434906105479083815260200190565b5f610ce96110a5565b805490915060ff600160401b82041615906001600160401b03165f81158015610d0f5750825b90505f826001600160401b03166001148015610d2a5750303b155b905081158015610d38575080155b15610d565760405163f92ee8a960e01b815260040160405180910390fd5b845467ffffffffffffffff191660011785558315610d8057845460ff60401b1916600160401b1785555b610d89866110cd565b610d916110de565b610d996110de565b8315610ddf57845460ff60401b19168555604051600181527fc7f505b2f371ae2175ee4913f4499e1f2633a7b5936321eed1cdaeb6115181d29060200160405180910390a15b505050505050565b610def610e24565b6001600160a01b038116610e1857604051631e4fbdf760e01b81525f60048201526024016107c8565b610e2181611035565b50565b33610e567f9016d09d72d40fdae2fd8ceac6b6234c7706214fd39c1cd1e609a0528c199300546001600160a01b031690565b6001600160a01b031614610b275760405163118cdaa760e01b81523360048201526024016107c8565b306001600160a01b037f0000000000000000000000000000000000000000000000000000000000000000161480610f0557507f00000000000000000000000000000000000000000000000000000000000000006001600160a01b0316610ef95f80516020611a94833981519152546001600160a01b031690565b6001600160a01b031614155b15610b275760405163703e46dd60e11b815260040160405180910390fd5b610e21610e24565b816001600160a01b03166352d1902d6040518163ffffffff1660e01b8152600401602060405180830381865afa925050508015610f85575060408051601f3d908101601f19168201909252610f8291810190611a61565b60015b610fad57604051634c9c8ce360e01b81526001600160a01b03831660048201526024016107c8565b5f80516020611a948339815191528114610fdd57604051632a87526960e21b8152600481018290526024016107c8565b610fe783836110e6565b505050565b306001600160a01b037f00000000000000000000000000000000000000000000000000000000000000001614610b275760405163703e46dd60e11b815260040160405180910390fd5b7f9016d09d72d40fdae2fd8ceac6b6234c7706214fd39c1cd1e609a0528c19930080546001600160a01b031981166001600160a01b03848116918217845560405192169182907f8be0079c531659141344cd1fd0a4f28419497f9722a3daafe3b4186f6b6457e0905f90a3505050565b5f807ff0c57e16840df040f15088dc2f81fe391c3923bec73e23a9662efc9c229c6a006104ef565b6110d561113b565b610e2181611160565b610b2761113b565b6110ef82611168565b6040516001600160a01b038316907fbc7cd75a20ee27fd9adebab32041f755214dbc6bffa90cc0225b39da2e5c2d3b905f90a280511561113357610fe782826111cb565b610af761123d565b61114361125c565b610b2757604051631afcd79f60e31b815260040160405180910390fd5b610def61113b565b806001600160a01b03163b5f0361119d57604051634c9c8ce360e01b81526001600160a01b03821660048201526024016107c8565b5f80516020611a9483398151915280546001600160a01b0319166001600160a01b0392909216919091179055565b60605f80846001600160a01b0316846040516111e79190611a78565b5f60405180830381855af49150503d805f811461121f576040519150601f19603f3d011682016040523d82523d5f602084013e611224565b606091505b5091509150611234858383611275565b95945050505050565b3415610b275760405163b398979f60e01b815260040160405180910390fd5b5f6112656110a5565b54600160401b900460ff16919050565b60608261128a57611285826112d4565b6112cd565b81511580156112a157506001600160a01b0384163b155b156112ca57604051639996b31560e01b81526001600160a01b03851660048201526024016107c8565b50805b9392505050565b8051156112e357805160208201fd5b60405163d6bda27560e01b815260040160405180910390fd5b5f6020828403121561130c575f80fd5b81356001600160e01b0319811681146112cd575f80fd5b5f60208284031215611333575f80fd5b5035919050565b5f5b8381101561135457818101518382015260200161133c565b50505f910152565b5f815180845261137381602086016020860161133a565b601f01601f19169290920160200192915050565b608081525f611399608083018761135c565b82810360208401526113ab818761135c565b905082810360408401526113bf818661135c565b905082810360608401526113d3818561135c565b979650505050505050565b80356001600160a01b03811681146113f4575f80fd5b919050565b5f60208284031215611409575f80fd5b6112cd826113de565b5f60208284031215611422575f80fd5b81356001600160401b03811115611437575f80fd5b820161012081850312156112cd575f80fd5b8215158152604060208201525f611463604083018461135c565b949350505050565b634e487b7160e01b5f52604160045260245ffd5b604051608081016001600160401b03811182821017156114a1576114a161146b565b60405290565b604051601f8201601f191681016001600160401b03811182821017156114cf576114cf61146b565b604052919050565b5f6001600160401b038211156114ef576114ef61146b565b50601f01601f191660200190565b5f61150f61150a846114d7565b6114a7565b9050828152838383011115611522575f80fd5b828260208301375f602084830101529392505050565b5f60208284031215611548575f80fd5b81356001600160401b0381111561155d575f80fd5b8201601f8101841361156d575f80fd5b611463848235602084016114fd565b5f82601f83011261158b575f80fd5b6112cd838335602085016114fd565b5f80604083850312156115ab575f80fd5b6115b4836113de565b915060208301356001600160401b038111156115ce575f80fd5b6115da8582860161157c565b9150509250929050565b5f602082840312156115f4575f80fd5b81356001600160401b038082111561160a575f80fd5b908301906080828603121561161d575f80fd5b61162561147f565b823582811115611633575f80fd5b61163f8782860161157c565b825250602083013582811115611653575f80fd5b61165f8782860161157c565b602083015250604083013582811115611676575f80fd5b6116828782860161157c565b604083015250606083013582811115611699575f80fd5b6116a58782860161157c565b60608301525095945050505050565b602081525f6112cd602083018461135c565b600181811c908216806116da57607f821691505b6020821081036116f857634e487b7160e01b5f52602260045260245ffd5b50919050565b5f808335601e19843603018112611713575f80fd5b83016020810192503590506001600160401b03811115611731575f80fd5b80360382131561173f575f80fd5b9250929050565b81835281816020850137505f828201602090810191909152601f909101601f19169091010190565b5f808335601e19843603018112611783575f80fd5b83016020810192503590506001600160401b038111156117a1575f80fd5b8060051b360382131561173f575f80fd5b5f838385526020808601955060208560051b830101845f5b8781101561180457848303601f190189526117e582886116fe565b6117f0858284611746565b9a86019a94505050908301906001016117ca565b5090979650505050505050565b6020815261183260208201611825846113de565b6001600160a01b03169052565b602082013560408201525f611849604084016113de565b6001600160a01b03811660608401525060608301356080830152608083013560a083015260a083013560c083015260c083013560e083015261188e60e08401846116fe565b61012061010081818701526118a861014087018486611746565b93506118b68188018861176e565b878603601f190184890152935090506113d38484836117b2565b5f80604083850312156118e1575f80fd5b825180151581146118f0575f80fd5b60208401519092506001600160401b0381111561190b575f80fd5b8301601f8101851361191b575f80fd5b805161192961150a826114d7565b81815286602083850101111561193d575f80fd5b61194e82602083016020860161133a565b8093505050509250929050565b601f821115610fe757805f5260205f20601f840160051c810160208510156119805750805b601f840160051c820191505b8181101561199f575f815560010161198c565b5050505050565b81516001600160401b038111156119bf576119bf61146b565b6119d3816119cd84546116c6565b8461195b565b602080601f831160018114611a06575f84156119ef5750858301515b5f19600386901b1c1916600185901b178555610ddf565b5f85815260208120601f198616915b82811015611a3457888601518255948401946001909101908401611a15565b5085821015611a5157878501515f19600388901b60f8161c191681555b5050505050600190811b01905550565b5f60208284031215611a71575f80fd5b5051919050565b5f8251611a8981846020870161133a565b919091019291505056fe360894a13ba1a3210667c828492db98dca3e2076cc3735a920a3ca505d382bbc417070206e6f74206465706c6f796564206f7220696e76616c69642061646472657373a264697066735822122027b0bf90a930328d8f9fd4a92693c7583e5288e32d7d4a068c0a54b11d04169664736f6c63430008160033","linkReferences":{}},"methodIdentifiers":{"UPGRADE_INTERFACE_VERSION()":"ad3cb1cc","addKmsAggregatedMr(bytes32)":"3e32d346","addKmsDevice(bytes32)":"4d5922a1","addOsImageHash(bytes32)":"06a3ae96","allowedOsImages(bytes32)":"9a4e1d18","gatewayAppId()":"95f51931","initialize(address)":"c4d66de8","isAppAllowed((address,bytes32,address,bytes32,bytes32,bytes32,bytes32,string,string[]))":"1e079198","kmsAllowedAggregatedMrs(bytes32)":"f6fe4f40","kmsAllowedDeviceIds(bytes32)":"13eb9770","kmsInfo()":"09177063","owner()":"8da5cb5b","proxiableUUID()":"52d1902d","registerApp(address)":"17a1d80f","registeredApps(address)":"a6c4cce9","removeKmsAggregatedMr(bytes32)":"2adee48d","removeKmsDevice(bytes32)":"9e6f3114","removeOsImageHash(bytes32)":"9425bac6","renounceOwnership()":"715018a6","setGatewayAppId(string)":"3971db27","setKmsInfo((bytes,bytes,bytes,bytes))":"7d025352","supportsInterface(bytes4)":"01ffc9a7","transferOwnership(address)":"f2fde38b","upgradeToAndCall(address,bytes)":"4f1ef286"},"storageLayout":{"storage":[{"astId":1355,"contract":"contracts/test-utils/DstackKmsV1.sol:DstackKmsV1","label":"kmsInfo","offset":0,"slot":"0","type":"t_struct(KmsInfo)1352_storage"},{"astId":1357,"contract":"contracts/test-utils/DstackKmsV1.sol:DstackKmsV1","label":"gatewayAppId","offset":0,"slot":"4","type":"t_string_storage"},{"astId":1361,"contract":"contracts/test-utils/DstackKmsV1.sol:DstackKmsV1","label":"registeredApps","offset":0,"slot":"5","type":"t_mapping(t_address,t_bool)"},{"astId":1365,"contract":"contracts/test-utils/DstackKmsV1.sol:DstackKmsV1","label":"kmsAllowedAggregatedMrs","offset":0,"slot":"6","type":"t_mapping(t_bytes32,t_bool)"},{"astId":1369,"contract":"contracts/test-utils/DstackKmsV1.sol:DstackKmsV1","label":"kmsAllowedDeviceIds","offset":0,"slot":"7","type":"t_mapping(t_bytes32,t_bool)"},{"astId":1373,"contract":"contracts/test-utils/DstackKmsV1.sol:DstackKmsV1","label":"allowedOsImages","offset":0,"slot":"8","type":"t_mapping(t_bytes32,t_bool)"},{"astId":1707,"contract":"contracts/test-utils/DstackKmsV1.sol:DstackKmsV1","label":"__gap","offset":0,"slot":"9","type":"t_array(t_uint256)50_storage"}],"types":{"t_address":{"encoding":"inplace","label":"address","numberOfBytes":"20"},"t_array(t_uint256)50_storage":{"encoding":"inplace","label":"uint256[50]","numberOfBytes":"1600","base":"t_uint256"},"t_bool":{"encoding":"inplace","label":"bool","numberOfBytes":"1"},"t_bytes32":{"encoding":"inplace","label":"bytes32","numberOfBytes":"32"},"t_bytes_storage":{"encoding":"bytes","label":"bytes","numberOfBytes":"32"},"t_mapping(t_address,t_bool)":{"encoding":"mapping","key":"t_address","label":"mapping(address => bool)","numberOfBytes":"32","value":"t_bool"},"t_mapping(t_bytes32,t_bool)":{"encoding":"mapping","key":"t_bytes32","label":"mapping(bytes32 => bool)","numberOfBytes":"32","value":"t_bool"},"t_string_storage":{"encoding":"bytes","label":"string","numberOfBytes":"32"},"t_struct(KmsInfo)1352_storage":{"encoding":"inplace","label":"struct DstackKmsV1.KmsInfo","numberOfBytes":"128","members":[{"astId":1345,"contract":"contracts/test-utils/DstackKmsV1.sol:DstackKmsV1","label":"k256Pubkey","offset":0,"slot":"0","type":"t_bytes_storage"},{"astId":1347,"contract":"contracts/test-utils/DstackKmsV1.sol:DstackKmsV1","label":"caPubkey","offset":0,"slot":"1","type":"t_bytes_storage"},{"astId":1349,"contract":"contracts/test-utils/DstackKmsV1.sol:DstackKmsV1","label":"quote","offset":0,"slot":"2","type":"t_bytes_storage"},{"astId":1351,"contract":"contracts/test-utils/DstackKmsV1.sol:DstackKmsV1","label":"eventlog","offset":0,"slot":"3","type":"t_bytes_storage"}]},"t_uint256":{"encoding":"inplace","label":"uint256","numberOfBytes":"32"}}},"id":5}